:100000000C9463000C948B000C948B000C948B006C
:100010000C948B000C948B000C948B000C948B0034
:100020000C948B000C948B000C948B000C948B0024
:100030000C948B000C948B000C948B000C948B0014
:100040000C944B040C948B000C94BB040C949504FE
:100050000C948B000C948B000C948B000C948B00F4
:100060000C948B000C948B000000000023002600F1
:10007000290000000000240027002A0000000000E2
:10008000250028002B0004040404040404040202D4
:100090000202020203030303030301020408102007
:1000A0004080010204081020010204081020000012
:1000B0000008000201000003040700000000000027
:1000C0000000ED04740811241FBECFEFD8E0DEBF9E
:1000D000CDBF23E0A8E5B2E001C01D92A631B20772
:1000E000E1F712E0A0E0B1E0ECEDF6E102C005902E
:1000F0000D92A835B107D9F710E0C2E6D0E004C0F0
:100100002197FE010E943809C136D107C9F70E9424
:1001100035050C94610B0C940000833081F028F4B9
:10012000813099F08230A9F008958730A9F08830A5
:10013000C9F08430B1F4809180008F7D03C080913C
:1001400080008F7780938000089584B58F7784BD79
:10015000089584B58F7DFBCF8091B0008F77809319
:10016000B00008958091B0008F7DF9CF1F93CF9399
:10017000DF93282F30E0F901E255FF4F8491F90118
:10018000E656FF4FD491F901EA57FF4FC491CC23B3
:10019000A9F0162F81110E948D00EC2FF0E0EE0FD8
:1001A000FF1FE458FF4FA591B4918FB7F894EC91DD
:1001B000111108C0D095DE23DC938FBFDF91CF9162
:1001C0001F910895DE2BF8CFCF93DF9390E0FC01D1
:1001D000E656FF4F24918A579F4FFC018491882354
:1001E000D1F090E0880F991FFC01EE58FF4FA591C8
:1001F000B491FC01E458FF4FC591D491623071F481
:100200009FB7F8943C91822F809583238C93E8814B
:100210002E2B28839FBFDF91CF9108958FB7F8943D
:10022000EC912E2B2C938FBFF6CF3FB7F894809193
:10023000670290916802A0916902B0916A0226B5A6
:10024000A89B05C02F3F19F00196A11DB11D3FBF0E
:10025000BA2FA92F982F8827BC01CD01620F711DDD
:10026000811D911D42E0660F771F881F991F4A95D7
:10027000D1F70895AF92BF92CF92DF92EF92FF92A3
:100280000F931F93CF93DF936C017B018B01040FBE
:10029000151FEB015E01AE18BF08C017D10759F05A
:1002A0006991D601ED91FC910190F081E02DC6019C
:1002B0000995892B79F7C501DF91CF911F910F9196
:1002C000FF90EF90DF90CF90BF90AF900895FC012A
:1002D000538D448D252F30E0842F90E0821B930BAB
:1002E000541710F0CF96089501970895FC01918D51
:1002F000828D981761F0A28DAE0FBF2FB11D5D9654
:100300008C91928D9F5F9F73928F90E008958FEFF5
:100310009FEF0895FC01918D828D981731F0828DA9
:10032000E80FF11D858D90E008958FEF9FEF089500
:10033000FC01918D228D892F90E0805C9F4F821B64
:1003400091098F73992708958BE692E00E94980196
:1003500021E0892B09F420E0822F0895FC01A48D6F
:10036000A80FB92FB11DA35ABF4F2C91848D90E0D7
:1003700001968F739927848FA689B7892C93A089BA
:10038000B1898C91837080648C93938D848D981344
:1003900006C00288F389E02D80818F7D80830895D7
:1003A000EF92FF920F931F93CF93DF93EC0181E0C5
:1003B000888F9B8D8C8D98131AC0E889F98980816C
:1003C00085FF15C09FB7F894EE89FF896083E8899F
:1003D000F98980818370806480839FBF81E090E091
:1003E000DF91CF911F910F91FF90EF900895F62E1E
:1003F0000B8D10E00F5F1F4F0F731127E02E8C8DB8
:100400008E110CC00FB607FCFACFE889F9898081FC
:1004100085FFF5CFCE010E94AE01F1CFEB8DEC0F41
:10042000FD2FF11DE35AFF4FF0829FB7F8940B8F19
:10043000EA89FB8980818062CFCFCF93DF93EC0183
:10044000888D8823B9F0AA89BB89E889F9898C91BC
:1004500085FD03C0808186FD0DC00FB607FCF7CF78
:100460008C9185FFF2CF808185FFEDCFCE010E9478
:10047000AE01E9CFDF91CF910895FC0101900020FA
:10048000E9F73197AF01481B590BBC018BE692E0AD
:100490000C943A018F929F92AF92BF920F931F9349
:1004A000CF93DF93CDB7DEB7A1970FB6F894DEBF39
:1004B0000FBECDBF19A2423008F44AE08E010F5D95
:1004C0001F4F842E912CB12CA12CA50194010E94C8
:1004D000F708E62FB901CA01EA30F4F4E05DD8016B
:1004E000EE938D01232B242B252B79F790E080E0D0
:1004F000109719F0CD010E943D02A1960FB6F89415
:10050000DEBF0FBECDBFDF91CF911F910F91BF9086
:10051000AF909F908F900895E95CE1CFCF93DF93E8
:100520004AE00E944A02EC018FE191E00E943D0204
:100530008C0F9D1FDF91CF910895CF93DF930E9481
:100540003D02EC018FE191E00E943D028C0F9D1F66
:10055000DF91CF91089520910C0330910D03232B4F
:1005600039F421E0FC018081882361F020E00AC099
:10057000BC0180910803909109030E94290B21E09E
:10058000892BA1F7822F0895CF93DF9320910C033D
:1005900030910D03232B89F0FC01C0910803D09109
:1005A000090360817181CE010E94470B009729F0F9
:1005B0008C1B9D0BDF91CF9108958FEF9FEFFACFAA
:1005C000FC014481558180910C0390910D038417A7
:1005D000950780F08091080390910903009751F0EE
:1005E000608171816115710529F00E94390B21E04C
:1005F000892B09F020E0822F08950F931F93CF934A
:10060000DF93EC0188819981009759F02A813B8121
:100610002617370730F081E0DF91CF911F910F91BE
:1006200008958B016F5F7F4F0E94630A009759F016
:10063000998388831B830A832C813D81232B59F75F
:10064000FC011082E8CF80E0E7CFCF93DF93EC018D
:1006500088819981009711F00E94DA091982188225
:100660001D821C821B821A82DF91CF910895EF9226
:10067000FF920F931F93CF93DF93EC017B011982BD
:1006800018821B821A821D821C82FB0101900020AD
:10069000E9F731978F01061B170BB8010E94FD0285
:1006A000811109C0CE01DF91CF911F910F91FF9071
:1006B000EF900C9425031D830C83B70188819981E9
:1006C000DF91CF911F910F91FF90EF900C94320B1F
:1006D000EF92FF920F931F93CF93DF938C017B01D7
:1006E000EB0109900020E9F72197C61BD70BBE014B
:1006F0000E94FD02811109C0C801DF91CF911F91B5
:100700000F91FF90EF900C942503F801D583C483DB
:10071000B70180819181DF91CF911F910F91FF905F
:10072000EF900C94320BCF92DF92EF92FF920F93E7
:100730001F93CF93DF936C017B018A014617570704
:1007400020F48F2D7A01062F182F61E271E0C60187
:100750000E943703C0910C03D0910D03EC16FD06E7
:10076000F8F40C171D0708F4E801E0910803F09174
:100770000903EC0FFD1F1081108260910803709136
:1007800009036E0D7F1DC6016115710599F00E9468
:1007900068038091080390910903C80FD91F18833B
:1007A000C601DF91CF911F910F91FF90EF90DF90E5
:1007B000CF9008950E942503ECCFEF92FF920F9304
:1007C0001F93CF93DF9300D0CDB7DEB7EE24E39431
:1007D0008BE692E00E949801892B09F445C0809134
:1007E0005D02811141C08BE692E00E947601F82EF5
:1007F00000910C0310910D030115110519F48CE300
:10080000F812E6CFF9821A820F5F1F4FB80188E015
:1008100093E00E94FD02882399F020910803309113
:10082000090380910C0390910D03BE016F5F7F4F10
:10083000820F931F0E94320B10930D0300930C0341
:100840008EE3F81203C0E0925D02C2CF80910C03E8
:1008500090910D03C19708F4BBCF61E271E088E08D
:1008600093E00E946803B4CF0F900F90DF91CF9177
:100870001F910F91FF90EF9008950E94A4018111A4
:100880000C94DD030895FC0180819181009711F0A3
:100890000C94DA0908951F920F920FB60F9211244B
:1008A0002F933F938F939F93AF93BF938091630256
:1008B00090916402A0916502B0916602309162024B
:1008C00023E0230F2D3758F50196A11DB11D20936C
:1008D00062028093630290936402A0936502B093D6
:1008E00066028091670290916802A0916902B091BE
:1008F0006A020196A11DB11D809367029093680260
:10090000A0936902B0936A02BF91AF919F918F91BA
:100910003F912F910F900FBE0F901F90189526E8D2
:10092000230F0296A11DB11DD2CF1F920F920FB6B9
:100930000F9211242F933F934F935F936F937F9365
:100940008F939F93AF93BF93EF93FF938BE692E0C8
:100950000E94AE01FF91EF91BF91AF919F918F9156
:100960007F916F915F914F913F912F910F900FBEAB
:100970000F901F9018951F920F920FB60F9211248F
:100980002F938F939F93EF93FF93E0917B02F091CE
:100990007C028081E0918102F091820282FD1BC085
:1009A0009081809184028F5F8F73209185028217DE
:1009B00041F0E0918402F0E0E559FD4F958F80937E
:1009C0008402FF91EF919F918F912F910F900FBE15
:1009D0000F901F9018958081F4CFEBE6F2E0138220
:1009E000128288EE93E0A0E0B0E084839583A68332
:1009F000B78381E191E09183808385EC90E09587D6
:100A0000848784EC90E09787868780EC90E0918BD8
:100A1000808B81EC90E0938B828B82EC90E0958BC5
:100A2000848B86EC90E0978B868B118E128E138EC2
:100A3000148E2091050130910601032E000C440B09
:100A4000550B60E472E48FE090E00E941909209356
:100A50000E0330930F03409310035093110361E290
:100A600071E088E093E00C943703CF93DF9300D0DC
:100A700000D000D0CDB7DEB7789484B5826084BD55
:100A800084B5816084BD85B5826085BD85B5816092
:100A900085BD80916E00816080936E001092810010
:100AA00080918100826080938100809181008160CB
:100AB000809381008091800081608093800080918C
:100AC000B10084608093B1008091B0008160809318
:100AD000B00080917A00846080937A0080917A00DF
:100AE000826080937A0080917A00816080937A009E
:100AF00080917A00806880937A001092C10061E052
:100B000082E00E94E40061E08DE00E94E40060E089
:100B100082E00E94B60060E08DE00E94B60062E0D4
:100B200084E00E94E400E0917B02F0917C0282E08C
:100B30008083E0917702F09178021082E09179024F
:100B4000F0917A0280E1808310928302E0917F022B
:100B5000F091800286E08083E0917D02F0917E0238
:100B6000808180618083E0917D02F0917E028081AE
:100B700088608083E0917D02F0917E0280818068B0
:100B80008083E0917D02F0917E0280818F7D808361
:100B900062E370E088E093E00E94FD0282E291E06F
:100BA0000E943D028EE391E00E949D026EE9262E96
:100BB00060E0362E7AE8872E70E0972EE0E44E2E25
:100BC000E2E45E2EEFE06E2E712CE2EBF0E0849119
:100BD000F1011491F4010491002309F480C1811101
:100BE0000E948D00E02FF0E0EE0FFF1FE859FF4F4D
:100BF000A591B4918C91182331E020E009F430E004
:100C0000832F922F282F2170309104012317B9F1DF
:100C10003FB7F8944091630250916402609165027D
:100C2000709166023FBFC0905E02D0905F02E0907C
:100C30006002F09061024C195D096E097F0943332F
:100C4000510561057105D8F03FB7F89440916302F2
:100C50005091640260916502709166023FBF4093BB
:100C60005E0250935F026093600270936102209372
:100C70000401892B21F484E491E00E949D0280917B
:100C80005D02882309F4BFC0C0900803D090090317
:100C9000C114D10449F000910C0310910D037601A9
:100CA0000115110509F01FC161E571E0CE01019642
:100CB0000E943703CE0101960E94E002182FCE0158
:100CC00001960E944304112309F452C16DEA71E0B8
:100CD000CE0101960E943703CE0101960E94C40204
:100CE0008C01CE0101960E9443046FE471E0CE01B5
:100CF00001960E943703CE0101960E94C4027C0136
:100D0000CE0101960E9443040F3F100709F473C0FF
:100D10008FEFE816F80609F46EC0B8016F5F7F4FD9
:100D2000A701CE0101960E94930389819A810097C1
:100D300009F415C10E9478089B0121503109203F18
:100D4000310508F010C170930601609305019B0105
:100D5000770F440B550BC301B2010E94F708209393
:100D60000E0330930F03409310035093110387E554
:100D700091E00E943D02C0900501D09006010D2C2B
:100D8000000CEE08FF084AE0C701B601F7FE0DC0EF
:100D90006DE28BE692E00E94D00166277727CB01B7
:100DA0006C197D098E099F094AE00E944A028FE171
:100DB00091E00E943D0284E691E00E943D02609134
:100DC0000E0370910F0380911003909111030E9404
:100DD0008E0284E791E00E943D02609100017091D3
:100DE000010180910201909103010E948E02CE01C7
:100DF00001960E94430461E271E088E093E00E9462
:100E0000680310925D0280915C02882309F45FC040
:100E10000E941501AB01BC018091580290915902CA
:100E2000A0915A02B0915B0200910E0310910F0342
:100E300020911003309111036A017B01C81AD90A6D
:100E4000EA0AFB0AC016D106E206F30608F43FC020
:100E5000800F911FA21FB31F6A017B01C81AD90A14
:100E6000EA0AFB0AC016D106E206F30608F033C10F
:100E70008093580290935902A0935A02B0935B0258
:100E800061E082E00E94B60061E08DE00E94B60061
:100E90000E9415016B017C010E9415016C197D09EE
:100EA0008E099F090091000110910101209102011A
:100EB00030910301601771078207930768F360E0C0
:100EC00082E00E94B60060E08DE00E94B6000E94C1
:100ED000A401882309F479CE0E94DD0376CE90E048
:100EE00080E090CE75015701FFEFAF1ABF0AF701FE
:100EF0008081082E000C990B0E94B408892B91F771
:100F0000015011090C0D1D1DF8018081082E000CE7
:100F1000990B0E94B408892B31F00E151F0518F0AB
:100F200001501109F1CFA8014F5F5F4F4E195F09C2
:100F300050930D0340930C03CE14DF0420F4B7014B
:100F4000C6010E94200BE0910803F09109038091F3
:100F50000C0390910D03E80FF91F1082A5CE60E0FD
:100F600070E0CB01E9CE87E891E00E949D023FCF7F
:100F700067EA71E0CE0101960E943703CE01019627
:100F80000E94E002182FCE0101960E944304112313
:100F900009F45DC06DEA71E0CE0101960E9437034D
:100FA000CE0101960E94C4028C01CE0101960E94DE
:100FB00043046FE471E0CE0101960E943703CE0135
:100FC00001960E94C4027C01CE0101960E94430456
:100FD0000F3F100709F40FCFFFEFEF16FF0609F4DC
:100FE0000ACFB8016F5F7F4FA701CE0101960E9423
:100FF000930389819A81009719F10E9478086115FD
:1010000071058105910501F100910E0310910F0307
:101010002091100330911103369527951795079568
:10102000601771078207930778F46093000170934B
:10103000010180930201909303018FEA91E0CBCEEE
:1010400060E070E0CB01DBCF89EC91E08ECF83EFE5
:1010500091E00E94AB02882391F081E080935C02D2
:101060000E941501609358027093590280935A02AE
:1010700090935B028BEF91E00E949D02BCCE8BE0CF
:1010800092E00E94AB02882369F010925C0260E05B
:1010900082E00E94B60060E08DE00E94B60082E12E
:1010A00092E0EACF82E292E00E94AB02882319F03C
:1010B00089E292E0E1CF8EE292E00E94AB028823C7
:1010C00039F088E392E00E943D028EE391E0D4CFB4
:1010D00081E492E0D1CF409358025093590260933B
:1010E0005A0270935B02CCCE88E093E00C944304E8
:1010F0001F93FC0199278827BC01E89411911032B5
:10110000E9F3193010F01E30C8F31B3251F01D32D4
:1011100049F4689406C00E949F08610F711D811DEB
:10112000911D119110531A30B0F33EF490958095B3
:10113000709561957F4F8F4F9F4F1F910895592F45
:10114000482F372F262F660F771F881F991F660F8E
:10115000771F881F991F620F731F841F951F660FCB
:10116000771F881F991F089591110C94BD08803234
:1011700019F089508550C8F7089599278827089550
:101180002F923F924F925F926F927F928F929F9297
:10119000AF92BF92CF92DF92EF92FF920F931F9385
:1011A000CF93DF93CDB7DEB7CA1BDB0B0FB6F89436
:1011B000DEBF0FBECDBF09942A88398848885F8476
:1011C0006E847D848C849B84AA84B984C884DF80E7
:1011D000EE80FD800C811B81AA81B981CE0FD11DCB
:1011E0000FB6F894DEBF0FBECDBFED010895A1E2AA
:1011F0001A2EAA1BBB1BFD010DC0AA1FBB1FEE1F91
:10120000FF1FA217B307E407F50720F0A21BB30BDB
:10121000E40BF50B661F771F881F991F1A9469F757
:1012200060957095809590959B01AC01BD01CF01B3
:101230000895052E97FB1EF400940E94300957FD77
:1012400007D00E94F70807FC03D04EF40C94300935
:1012500050954095309521953F4F4F4F5F4F0895E2
:1012600090958095709561957F4F8F4F9F4F089512
:10127000EE0FFF1F0590F491E02D09940F931F933B
:10128000CF93DF938230910510F482E090E0E091FB
:101290001403F091150330E020E0B0E0A0E03097B7
:1012A00099F42115310509F44AC0281B390B243063
:1012B0003105D8F58A819B816115710589F1FB01A2
:1012C00093838283FE0111C0408151810281138189
:1012D00048175907E0F04817590799F4109761F03B
:1012E00012960C93129713961C933296CF01DF91AE
:1012F000CF911F910F91089500931403109315033C
:10130000F4CF2115310551F04217530738F0A901E8
:10131000DB019A01BD01DF01F801C1CFEF01F9CF77
:101320009093150380931403CDCFFE01E20FF31FBA
:10133000819391932250310939832883D7CF20910B
:10134000120330911303232B41F4209109013091B2
:101350000A01309313032093120320910701309167
:1013600008012115310541F42DB73EB740910B011D
:1013700050910C01241B350BE0911203F0911303E3
:10138000E217F307A0F42E1B3F0B2817390778F05C
:10139000AC014E5F5F4F2417350748F04E0F5F1FBB
:1013A0005093130340931203819391939FCFF0E0E6
:1013B000E0E09CCFCF93DF930097E9F0FC013297F8
:1013C00013821282A0911403B0911503ED0130E055
:1013D00020E01097A1F420813181820F931F20918A
:1013E0001203309113032817390709F061C0F093F5
:1013F0001303E0931203DF91CF910895EA01CE1712
:10140000DF07E8F54A815B819E0141155105B1F77F
:10141000E901FB83EA8349915991C40FD51FEC1769
:10142000FD0761F4808191810296840F951FE90187
:1014300099838883828193819B838A83F0E0E0E0B3
:1014400012968D919C9113970097B9F52D913C912F
:101450001197CD010296820F931F209112033091B4
:1014600013032817390739F6309751F510921503F1
:1014700010921403B0931303A0931203BCCFD38331
:10148000C28340815181840F951FC817D90761F429
:101490004E5F5F4F88819981480F591F5183408368
:1014A0008A819B81938382832115310509F0B0CF16
:1014B000F0931503E09314039ECFFD01DC01C0CF30
:1014C00013821282D7CFB0E0A0E0E9E6FAE00C94F4
:1014D000C2088C01009751F4CB010E943E098C0197
:1014E000C801CDB7DEB7E0E10C94DE08FC01E60FE1
:1014F000F71F9C0122503109E217F30708F49DC041
:10150000D901CD91DC911197C617D70798F0C53056
:10151000D10530F3CE0104978617970708F3C61B51
:10152000D70B2297C193D1936D937C93CF010E94E7
:10153000DA09D6CF5B01AC1ABD0A4C018C0E9D1E98
:10154000A0911403B0911503512C412CF12CE12CE6
:10155000109731F580911203909113038815990526
:1015600009F05CC04616570608F058C08091070184
:1015700090910801009741F48DB79EB740910B01FF
:1015800050910C01841B950BE817F90708F055C022
:10159000F0931303E0931203F90171836083A0CFEA
:1015A0008D919C91119712966C90129713967C9046
:1015B0001397A815B90559F56C0142E0C40ED11C6A
:1015C000CA14DB0420F1AC014A195B09DA01129656
:1015D000159780F06282738251834083D9016D93A5
:1015E0007C93E114F10471F0D7011396FC93EE9310
:1015F000129776CF22968C0F9D1FF90191838083DD
:10160000F301EFCFF0931503E093140369CF48166D
:10161000590608F42C017D01D3019ACFCB010E9419
:101620003E097C01009749F0AE01B8010E94200BF1
:10163000C8010E94DA09870153CF10E000E050CFC3
:10164000FB01DC0102C001900D9241505040D8F7DF
:101650000895FB01DC018D91019080190110D9F3EF
:10166000990B0895FB01DC0101900D920020E1F738
:101670000895FB01DC014150504030F08D91019004
:10168000801919F40020B9F7881B990B0895FB0104
:1016900051915523A9F0BF01DC014D91451741112E
:1016A000E1F759F4CD010190002049F04D9140152A
:1016B0004111C9F3FB014111EFCF81E090E00197A7
:1016C000089510E0C2E6D0E004C0FE010E9438098F
:0C16D0002196C336D107C9F7F894FFCF6C
:1016DC00E8030000013C000000160380000000003D
:1016EC0000D0013A0167011D02980176018A010DB3
:1016FC000A004F56393238312053796E63205472B8
:10170C006967676572205265616479207600312EB5
:10171C00352E30003C544F47474C455F5245433EB5
:10172C00003C4650533A0046505320736574207465
:10173C006F3A2000496E74657276616C202875735F
:10174C00293A200050756C736520776964746820A1
:10175C00287573293A20004572726F723A204650F0
:10176C0053206F7574206F662072616E6765202838
:10177C00312D32343029003C50554C53453A0050F1
:10178C00756C736520776964746820736574207454
:10179C006F20287573293A20004572726F723A20B7
:1017AC0050756C7365206D757374206265203E20D6
:1017BC003020616E64203C20696E74657276616CB9
:1017CC002F32003C53544152543E005472696767A7
:1017DC0065722053544152544544003C53544F506D
:1017EC003E00547269676765722053544F505045E0
:1017FC0044003C50494E473E00504F4E47003C562B
:10180C00455253494F4E3E0056455253494F4E3A5E
:10181C00004572726F723A20556E6B6E6F776E2048
:08182C00636F6D6D616E6400D5
:00000001FF
